:100000000C9446000C9465000C9465000C946500FB
:100010000C9465000C9465000C9465000C946500CC
:100020000C9465000C9465000C9465000C946500BC
:100030000C9465000C94DE000C9465000C94650033
:100040000C9465000C9465000C9465000C9465009C
:100050000C9465000C9465000C9465000C9465008C
:100060000C9465000C9465000C9465000C9465007C
:100070000C9465000C9465000C9465000C9465006C
:100080000C9465000C9465000C94650011241FBE4F
:10009000CFEFD0E4DEBFCDBF11E0A0E0B1E0E8EFEC
:1000A000F5E000E00BBF02C007900D92A831B10748
:1000B000D9F721E0A8E1B1E001C01D92A532B20755
:1000C000E1F70E94B0020C94FA020C940000CF9366
:1000D000DF9300D01F92CDB7DEB789837B836A831D
:1000E00089818A3031F48A819B81BC018DE00E9434
:1000F000670080EC90E0FC018081882F90E08072A6
:100100009927892BB1F386EC90E02981FC012083AB
:1001100080E090E00F900F900F90DF91CF910895C5
:10012000CF93DF93CDB7DEB781E890E02BE0FC0101
:10013000208388E890E02DE730E0FC0131832083C4
:100140008FE690E022E0FC01208384E890E0FC014F
:100150001182108280910E0190910F01A0911001E7
:10016000B09111018093190190931A01A0931B0182
:10017000B0931C018FE590E02FE530E0F90120817C
:100180002068FC0120830000DF91CF910895CF9378
:10019000DF93CDB7DEB781E890E0FC01108200006C
:1001A000DF91CF910895CF93DF93CDB7DEB781E094
:1001B000809318010000DF91CF9108951F920F9254
:1001C00000905F000F92112400905B000F922F931C
:1001D0003F934F935F936F937F938F939F93AF93CF
:1001E000BF93EF93FF93CF93DF93CDB7DEB78091AB
:1001F000190190911A01A0911B01B0911C01019766
:10020000A109B1098093190190931A01A0931B01D0
:10021000B0931C018091190190911A01A0911B01CA
:10022000B0911C01892B8A2B8B2B91F40E94D30057
:1002300080910E0190910F01A0911001B0911101D8
:100240008093190190931A01A0931B01B0931C0194
:100250000000DF91CF91FF91EF91BF91AF919F91FE
:100260008F917F916F915F914F913F912F910F905F
:1002700000925B000F9000925F000F901F90189506
:10028000CF93DF9300D000D0CDB7DEB769837A83F8
:100290008B839C8389819A81AB81BC8180930E0181
:1002A00090930F01A0931001B093110180910E0162
:1002B00090910F01A0911001B0911101809319014B
:1002C00090931A01A0931B01B0931C0100000F90A2
:1002D0000F900F900F90DF91CF910895CF93DF9300
:1002E000CDB7DEB780912301909124018130910533
:1002F00089F08130910538F08230910569F10397DA
:1003000009F44FC073C081E090E090932401809382
:1003100023016CC01092220188E290E0209122011A
:10032000222F30E02E5E3E4FF9012081FC01208318
:100330008BE290E020912201222F30E02B5E3E4F95
:10034000F90120812095FC01208382E090E09093C8
:100350002401809323014AC0809122018F5F809302
:10036000220188E290E020912201222F30E02E5ECF
:100370003E4FF9012081FC0120838BE290E0209127
:100380002201222F30E02B5E3E4FF9012081209583
:10039000FC01208383E090E090932401809323016B
:1003A00025C0809122018F5F8093220188E290E036
:1003B00020912201222F30E02E5E3E4FF901208154
:1003C000FC0120838BE290E020912201222F30E07B
:1003D0002B5E3E4FF90120812095FC01208381E0B6
:1003E00090E0909324018093230100000000DF91AE
:1003F000CF910895CF93DF93CDB7DEB780911F01E2
:1004000090912001009719F0019741F0A5C081E07B
:1004100090E09093200180931F019EC080911E0167
:10042000813011F5809117018230F0F010921D019A
:1004300016C080911D01882F90E020911D01222F70
:1004400030E02B5E3E4FF901208126958B5E9E4F5A
:10045000FC01208380911D018F5F80931D0180919D
:100460001D01833030F371C080911E01823011F57F
:10047000809115018031F0F410921D0116C0809119
:100480001D01882F90E020911D01222F30E02B5E6E
:100490003E4FF9012081220F8B5E9E4FFC0120838D
:1004A00080911D018F5F80931D0180911D0183301C
:1004B00030F34BC080911E01843011F58091120100
:1004C0008823F4F010921D0116C080911D01882F21
:1004D00090E020911D01222F30E02E5E3E4FF90169
:1004E0002081220F8E5E9E4FFC01208380911D0192
:1004F0008F5F80931D0180911D01833030F325C0F3
:1005000080911E01883009F5809114018031E8F056
:1005100010921D0116C080911D01882F90E020913E
:100520001D01222F30E02E5E3E4FF90120812695DD
:100530008E5E9E4FFC01208380911D018F5F809312
:100540001D0180911D01833030F381E090E0909394
:10055000200180931F0100000000DF91CF910895DA
:10056000CF93DF93CDB7DEB781E290E0FC0110823C
:1005700082E290E02FEFFC0120838AE290E02FEFEF
:10058000FC0120838BE290E0FC01108287E290E086
:100590002FEFFC01208388E290E0FC01108261E0F3
:1005A00070E080E090E00E944001109224011092DF
:1005B00023010E94900080E290E0FC018081809500
:1005C00080931E0180912101883C30F480912101AB
:1005D0008F5F8093210104C00E94FA0110922101D3
:1005E0000E946E010000809118018823E1F31092AF
:0805F0001801E1CFF894FFCFE0
:1005F8000000000200000000670000000000010089
:0806080000003C243C08040240
:00000001FF
