:100000000C9446000C9465000C9465000C946500FB
:100010000C9465000C9465000C9465000C946500CC
:100020000C9465000C9465000C9465000C946500BC
:100030000C9465000C94DE000C9465000C94650033
:100040000C9465000C9465000C9465000C9465009C
:100050000C9465000C9465000C9465000C9465008C
:100060000C9465000C9465000C9465000C9465007C
:100070000C9465000C9465000C9465000C9465006C
:100080000C9465000C9465000C94650011241FBE4F
:10009000CFEFD0E4DEBFCDBF11E0A0E0B1E0E6E0FD
:1000A000F7E000E00BBF02C007900D92AA31B10744
:1000B000D9F721E0AAE1B1E001C01D92A632B20752
:1000C000E1F70E9443030C9481030C940000CF934A
:1000D000DF9300D01F92CDB7DEB789837B836A831D
:1000E00089818A3031F48A819B81BC018DE00E9434
:1000F000670080EC90E0FC018081882F90E08072A6
:100100009927892BB1F386EC90E02981FC012083AB
:1001100080E090E00F900F900F90DF91CF910895C5
:10012000CF93DF93CDB7DEB781E890E02BE0FC0101
:10013000208388E890E02DE730E0FC0131832083C4
:100140008FE690E022E0FC01208384E890E0FC014F
:100150001182108280910E0190910F01A0911001E7
:10016000B091110180931B0190931C01A0931D017C
:10017000B0931E018FE590E02FE530E0F90120817A
:100180002068FC0120830000DF91CF910895CF9378
:10019000DF93CDB7DEB781E890E0FC01108200006C
:1001A000DF91CF910895CF93DF93CDB7DEB781E094
:1001B00080931A010000DF91CF9108951F920F9252
:1001C00000905F000F92112400905B000F922F931C
:1001D0003F934F935F936F937F938F939F93AF93CF
:1001E000BF93EF93FF93CF93DF93CDB7DEB78091AB
:1001F0001B0190911C01A0911D01B0911E0101975E
:10020000A109B10980931B0190931C01A0931D01CA
:10021000B0931E0180911B0190911C01A0911D01C2
:10022000B0911E01892B8A2B8B2B91F40E94D30055
:1002300080910E0190910F01A0911001B0911101D8
:1002400080931B0190931C01A0931D01B0931E018C
:100250000000DF91CF91FF91EF91BF91AF919F91FE
:100260008F917F916F915F914F913F912F910F905F
:1002700000925B000F9000925F000F901F90189506
:10028000CF93DF9300D000D0CDB7DEB769837A83F8
:100290008B839C8389819A81AB81BC8180930E0181
:1002A00090930F01A0931001B093110180910E0162
:1002B00090910F01A0911001B091110180931B0149
:1002C00090931C01A0931D01B0931E0100000F909C
:1002D0000F900F900F90DF91CF910895CF93DF9300
:1002E00000D000D0CDB7DEB78B836C8381E09C81DA
:1002F0009817E1F51A82198227C08BE290E028E076
:10030000FC0120838BE290E02BE230E0F9012081B8
:10031000422F2B81222F30E0098002C0359527958E
:100320000A94E2F72170242BFC0120838BE290E0F9
:100330002BE230E0F90120812260FC0120838981D9
:100340009A8101969A83898389819A810597ACF273
:100350008BE290E02BE230E0F90120812460FC0187
:1003600020838BE290E0FC0110823FC082E09C8100
:100370009817D9F51A82198227C08BE290E020E203
:10038000FC0120838BE290E02BE230E0F901208138
:10039000422F2B81222F30E0098002C0359527950E
:1003A0000A94E2F72170242BFC0120838BE290E079
:1003B0002BE230E0F90120812260FC012083898159
:1003C0009A8101969A83898389819A810897ACF2F0
:1003D0008BE290E02BE230E0F90120812061FC010A
:1003E00020838BE290E0FC01108200000F900F90C0
:1003F0000F900F90DF91CF910895CF93DF93CDB7FA
:10040000DEB780911F019091200181309105E9F0C4
:100410008130910530F08230910559F10397E9F16F
:1004200050C092E080911201692F0E946E0191E00C
:10043000809115018095692F0E946E0181E090E006
:100440009093200180931F013CC092E080911301A2
:10045000692F0E946E0191E0809116018095692FAD
:100460000E946E0182E090E09093200180931F0132
:1004700028C092E080911401692F0E946E0191E0E2
:10048000809117018095692F0E946E0183E090E0B2
:100490009093200180931F0114C092E0809112017B
:1004A000692F0E946E0191E0809115018095692F5E
:1004B0000E946E0181E090E09093200180931F01E3
:1004C00000000000DF91CF910895CF93DF93CDB767
:1004D000DEB78091220190912301009719F00197D6
:1004E00079F0CDC080E290E0FC018081809580931E
:1004F000250181E090E09093230180932201BFC009
:1005000080E290E0FC0180818095809325018091BC
:100510002501883041F580911201882324F1109241
:10052000210116C080912101882F90E020912101A6
:10053000222F30E02E5E3E4FF9012081220F8E5E89
:100540009E4FFC012083809121018F5F80932101C8
:1005500080912101833030F381E090E0909323017A
:10056000809322018BC080912501843041F58091D8
:100570001401803120F11092210116C080912101D7
:10058000882F90E020912101222F30E02E5E3E4FF7
:10059000F901208126958E5E9E4FFC01208380917B
:1005A00021018F5F8093210180912101833030F3FD
:1005B00081E090E090932301809322015FC08091BD
:1005C0002501823041F580911701823020F110928F
:1005D000210116C080912101882F90E020912101F6
:1005E000222F30E02B5E3E4FF901208126958B5E55
:1005F0009E4FFC012083809121018F5F8093210118
:1006000080912101833030F381E090E090932301C9
:100610008093220133C080912501813041F5809182
:100620001501803120F51092210116C08091210121
:10063000882F90E020912101222F30E02B5E3E4F49
:10064000F9012081220F8B5E9E4FFC012083809157
:1006500021018F5F8093210180912101833030F34C
:1006600081E090E0909323018093220107C081E014
:1006700090E0909323018093220100C000000000CD
:10068000DF91CF910895CF93DF93CDB7DEB781E2AD
:1006900090E0FC01108282E290E02FEFFC012083C9
:1006A0008AE290E02FEFFC0120838BE290E0FC01D6
:1006B000108261E070E080E090E00E9440011092C2
:1006C000200110921F0110922301109222010E941A
:1006D000900080912401843630F4809124018F5F52
:1006E0008093240104C0109224010E9465020E949C
:1006F000FD01000080911A018823E1F310921A0194
:06070000E8CFF894FFCFE2
:100706000000000200000000670000000000010079
:0A07160000003C243C08040201022C
:00000001FF
